:020000040000FA
:100000005806002055010000810100008301000016
:10001000930100009501000097010000000000001E
:100020000000000000000000000000009901000036
:100030009B010000000000009D010000FD15000074
:10004000A1010000A1010000A1010000A101000028
:10005000A1010000A1010000A1010000A101000018
:10006000A1010000A1010000A1010000A101000008
:10007000A1010000A1010000A1010000A1010000F8
:10008000A1010000A1010000A1010000A1010000E8
:10009000A1010000A1010000A1010000A1010000D8
:1000A000A1010000A1010000A1010000A1010000C8
:1000B000A1010000A1010000A1010000A1010000B8
:1000C000A101000059180000A1010000A1010000D9
:1000D000C91C0000A1010000A1010000A101000055
:1000E000A1010000A1010000A1010000A101000088
:1000F000A1010000A1010000A1010000A101000078
:10010000A1010000A1010000A1010000A101000067
:10011000A1010000A1010000A1010000A101000057
:10012000A1010000A1010000A1010000A101000047
:10013000A1010000A1010000A1010000A101000037
:100140000348854600F03AFA00480047D5240000ED
:1001500058060020174840F25901016040F216018C
:10016000016040F288010160134A45F6A521116043
:10017000124A116000210160114880471148004770
:10018000FEE77046EFF30881EFF309820E4B9847C4
:100190000047FEE7FEE7FEE7FEE7FEE7FEE7FEE7D5
:1001A000FEE70000ABBE094B08B5984708BD704696
:1001B000F04700000001004024000040EC01004036
:1001C0009516000041010000851100003D1200005D
:1001D000F0B51FB40646002082B0054640240191C8
:1001E00000901BE0019922460F46304600F02DFAA0
:1001F000049A059B801A994110D31046194622464D
:1002000000F013FA361A8F4101972246012000218F
:10021000009F00F00AFA38184D4100902046641EF5
:100220000028DFDC019B00982946324607B0F0BD6C
:10023000F0B507460846584087B0C00F0490480004
:100240000E46590040084908BC1A884105D2384674
:1002500031461E4617460B460246580040081043DA
:100260004CD0300D039040055900400D490D0590CC
:10027000401A0290402872DA18030121000B090588
:100280000843019004980092002805D00199524239
:100290000020884100920190029840210A1A019999
:1002A000009800F0C2F905460C466B4607CB00F0FB
:1002B000DDF9C0197141039A0E0D0023D71756407E
:1002C0001A467A40164344D0049A002A2DD0029A46
:1002D000012A039A15DC1205C01A91410126360540
:1002E000001C7141D20F059ED20700930192029625
:1002F0002A46234600F0DAF907B0F0BD3846314609
:10030000FAE71605224A0F46B218C01AB741012172
:100310000905001C4F4100187F411146181879410A
:10032000E20F10436D19644113E0E2076D081543B5
:100330006408C2071443039A01261205C01A9141AA
:100340003605001C7141CE07400830434908C018EB
:1003500051412A46234600F09CF9CDE7FFE7049877
:1003600001224000C117121A00238B410498314624
:10037000C417381AA141EEE730B40124E407634002
:1003800030BC55E730B40124E407614030BC4FE78E
:100390000000E0FFF0B51FB488B00B990998002465
:1003A00048400999C00F490049080991C0070B99B5
:1003B0000090490049080B9109990898A6460843FE
:1003C0001CD00B990A98084318D0099801244000C2
:1003D000420D4800410D099824050003000B2043FD
:1003E00009900B980003000B20430B9050181C49F8
:1003F0004018002201901446104605E000200146F6
:100400000DB0F0BD032801DA034600E003239C464B
:10041000C11A0AAE0AE05F0008ADED5B4F00F75B62
:100420007D430027AA187C41491C5B1E6145F2DD13
:10043000410004AB5A522104120C0A43240C401C04
:100440000828DFDB01980290009970460191009026
:10045000059B049A0799069800F028F9D0E7000058
:100460000DFCFFFFF0B50C465C4085B0E40FE407DF
:1004700003944C000026640859009446490802463B
:100480000296224321D062460A431ED06200570DD5
:100490004A000E032303550D012402462C4924056E
:1004A000781B1B0B360B40182343264361460090F4
:1004B0001C46501AB44103D30098401C009002E03F
:1004C000921800985B41002803DA0020014605B02D
:1004D000F0BD0020012109050746864611E064466B
:1004E0001D46141BB54106D36546521BB3417446E5
:1004F00007430C43A646CD074008490828439218F5
:100500005B4105460D43EAD11046184313D06046BF
:10051000194650407140084306D06046101AB34156
:1005200006D20122002306E000220123DB0702E0BD
:100530000122D2435310009874460105381C6141D2
:10054000029C039D0019694100F0A3F8BFE7000079
:10055000FD0300004A0009030123090B1B05194391
:100560000A4B10B5520D9A4202DA0020014610BD26
:10057000064B34339A4203DC9A1A00F066F810BD39
:10058000034BD21800F051F810BD0000FF0300002B
:10059000CDFBFFFF10B5002904DB0124E407404236
:1005A0008C412146002B04DB1C460123DB07524211
:1005B000A341994200D1904210BD00001CB50948EA
:1005C00000900948019005460126009C05E0E3687B
:1005D00007CC33430C3C98471034AC42F7D3FFF7B9
:1005E000B3FD0000E83100000832000070B5044699
:1005F000002903D000202022012310E0002801D090
:100600000020C043C046C0460DE02546D5408D427F
:1006100005D30D469540641B1D469540401915466F
:10062000521E002DF1DC214670BD10B5202A04DBDE
:100630000146203A9140002010BD914020239C1A91
:100640000346E3401943904010BD10B5202A04DB57
:100650000846203AD040002110BD0B46D340D04080
:100660002024A21A91400843194610BD10B5202A33
:1006700006DBCB170846203A1041C1170B4306E0B2
:100680000B461341D0402024A21A9140084319463A
:1006900010BD10B5002B08DA0024401C61419218EF
:1006A0005B411A4301D14008400010BDF0B51FB4B2
:1006B00082B005460C0003D0084601F051FF02E06D
:1006C00001F04EFF20300246009021462846FFF7F9
:1006D000ACFF049B059A04460F4618431143084398
:1006E00014D0184610431BD0009840210A1A18460F
:1006F0000599FFF7AAFF05460E46009A059904984A
:10070000FFF793FF084305D0012004E02046394657
:1007100007B0F0BD0020C11705430E432C433743FB
:1007200000990E986305401A7905E40A00220C43EB
:10073000FD0A0A3002D500200146E9E7010510193B
:1007400069410C9C0D9D00196941FFF7A2FFDFE78D
:1007500083B0029000200190009002991F20014078
:10076000012088400190074800900298800F810086
:10077000009840180090019A00990868104308609A
:1007800003B070470402004081B00090009A5549C0
:1007900008681043086001B07047C04680B500F09B
:1007A00049FF9448006880BD80B500F043FF914840
:1007B000006880BD80B582B000F03CFF0D48006845
:1007C0000721084001908B4800680199C84002B099
:1007D00080BDC04680B582B000F02CFF054800689F
:1007E0007021084000090190824800680199C840C2
:1007F00002B080BD3402004080B584B00390029105
:100800007E480168102001400191364A1168042396
:1008100000931943116000F0C5F8009B6049086817
:10082000052210430222904308602F4A10681843A3
:100830000B2398431060594A10680F239843029B7A
:1008400018431060086807229043039A1043086019
:1008500000F0F0FE67480068244988420ED3FFE7A5
:10086000644800682249884208D8FFE71E490868A2
:10087000032210430C229043086014E05D48006896
:100880001C4988420ED3FFE75A4800681A4988423B
:1008900008D8FFE714490868022210430D2290434C
:1008A0000860FFE7FFE7534800681449884208D80A
:1008B000FFE70D490868012210430E2290430860AB
:1008C000FFE7039805280AD0FFE7019830B9FFE752
:1008D00004490868042290430860FFE7FFE704B07A
:1008E00080BDC046000200404CC0004080F0FA02CB
:1008F000BF68780440787D017FF0FA023F787D017F
:100900008DB00C900B910A920020099008900C2158
:100910000791082206920421059104901023039365
:100920000292019100900C98800A0006B8B1FFE78E
:100930000CA841880C2001406846405817494018CF
:100940000890089800680C9A910AC9B29205D20ED4
:10095000914088430A99084308990860FFE70C987A
:100960000001400FB8B1FFE70C98810E0C20014048
:1009700004A840580A4940180990099800680C9A40
:100980001101490FD201D20E914088430B990843BF
:1009900009990860FFE70DB07047C046200200408B
:1009A0001002004083B00290B948006840080190EE
:1009B00001200090104900200860FFE70F48006800
:1009C00002990840884209D0FFE70198401E019033
:1009D00018B9FFE70020009000E0EFE7019828B980
:1009E000FFE705490020C0430860FFE7009803B017
:1009F0007047C046040000200C0100205002004057
:100A000081B0009001B0704780B582B018200421F9
:100A100000F09EFA0190019828B1FFE7019904487F
:100A200001F08EFD02E000F0B9FCFFE702B080BDEE
:100A30002B2F000080B584B003A901910020029003
:100A400008701348134901F07BFD00F085FC00F0AD
:100A5000AFF9019902980870FFE703A800781728FA
:100A600010DCFFE703A800781821B0FBF1F2514336
:100A7000401AFF2101F0CCFAFFE70398401C03A9BC
:100A80000870EAE700F096F800F024FC04B080BD9E
:100A9000D22E0000B431000080B586B005A90291C5
:100AA00000200390087004A908701B481B4901F03E
:100AB00047FD00F051FC00F07BF9029903980870A3
:100AC000FFE705A8007817281FDCFFE705A80078D6
:100AD0001821B0FBF1F25143401A04A9019100F032
:100AE0008FFB019801780E4801F02AFD0598401C03
:100AF000400720B9FFE70B4801F022FDFFE7FFE7C1
:100B00000598401C05A90870DBE700F053F800F0D9
:100B1000E1FB06B080BDC046CF3000009C31000034
:100B2000933100007731000010B584B003A9002094
:100B30000190087002A9009108701B4802781B48B8
:100B40001B4901F0FDFC00F007FC00F031F90099B1
:100B500001980870FFE702A80078172817DCFFE764
:100B600002A800781821B0FBF1F25143401A0E4957
:100B70000978039A531C03AC23708918C9B201F099
:100B800047FAFFE70298401C02A90870E3E706490C
:100B90000878401C087000F00DF800F09BFBFFF790
:100BA0007BFF04B010BDC04628000020122F0000BB
:100BB000CD310000814908680122904308607047E8
:100BC00080B500F0D9FB074908680222104308608D
:100BD0007A49086801221043086008680822104317
:100BE000086080BD0402004080B584B00290B64920
:100BF00000200860029801214905884204D1FFE7DE
:100C000000F048F803903FE0B049222008600298C5
:100C1000AF490860B04901200860B04800680A2167
:100C2000B0FBF1F040080190FFE70198411E0191EF
:100C30000020009031B1FFE7A7480068012108407B
:100C40000090FFE70098C00708B1FFE7EDE70198C3
:100C500030B9FFE79C490020C0430860039013E0CF
:100C600056480068400600280BD5FFE7534908683E
:100C700040221043086094490020C043086003905C
:100C800002E000200390FFE7039804B080BDC04657
:100C90000400002084B08C49002008608B49222089
:100CA0000860012041058A4A11608A4A3E49116064
:100CB00089490860894800680A21B0FBF1F04008C2
:100CC0000290FFE70298411E02910020019031B18D
:100CD000FFE781480068012108400190FFE7019883
:100CE000C00708B1FFE7EDE7029830B9FFE77649A2
:100CF0000020C0430860039053E03048006840067D
:100D000000280BD5FFE72D490868402210430860F2
:100D10006D490020C0430860039042E06B492220E7
:100D200008606B49214808606A491F4808606A49A1
:100D300001200860694800680A21B0FBF1F0400812
:100D40000290FFE70298411E02910020009031B10D
:100D5000FFE761480068012108400090FFE7009824
:100D6000C00708B1FFE7EDE7029830B9FFE7564941
:100D70000020C0430860039013E01048006840065C
:100D800000280BD5FFE70D49086840221043086092
:100D90004D490020C0430860039002E0002003900A
:100DA000FFE7039804B0704703AA55000002200033
:100DB00002490868012210430860704700C00040E3
:100DC00084B00290404900200860404908600298C1
:100DD0003F490860404901200860404800680A21F6
:100DE000B0FBF1F080080190FFE70198411E0191EE
:100DF0000020009031B1FFE737480068012108402A
:100E00000090FFE70098C00708B1FFE7EDE7019801
:100E100030B9FFE72C490020C0430860039003E08D
:100E20002C4800680390FFE7039804B07047C04661
:100E300085B00390029124490020086023492120B5
:100E400008600398224908600298224908602249F4
:100E500001200860214800680A21B0FBF1F08008F9
:100E60000190FFE70198411E01910020009031B1EF
:100E7000FFE719480068012108400090FFE700984B
:100E8000C00708B1FFE7EDE7019830B9FFE70E4969
:100E90000020C0430860049013E011480068400639
:100EA00000280BD5FFE70E49086840221043086070
:100EB00005490020C0430860049002E0002004902F
:100EC000FFE7049805B07047100100200CC00040F7
:100ED00004C0004008C0004010C0004004000020D2
:100EE00040C0004080B505490868F0229043086082
:100EF00003480221012200F005F880BD38000040BF
:100F00004040004084B00390029101920020009084
:100F1000FFE700980F2818D8FFE702980099C8400B
:100F2000C00768B1FFE70398006800994A000321F1
:100F30009140884301999140084303990860FFE775
:100F4000FFE70098401C0090E3E704B07047000002
:100F500084B0029001910299B64801600199854AD6
:100F600011600068812803D3FFE7012003901EE091
:100F70008048006828B1FFE77E480068092803D34D
:100F8000FFE70220039012E000200090FFE70098A6
:100F90007F2809D8FFE7009AA749FF208854FFE778
:100FA0000098401C0090F2E700200390FFE70398B0
:100FB00004B0704780B58CB000200B90089007906B
:100FC0006B4805900068400247F600014018FFF7A3
:100FD000F7FE0146059809910068401C65490968BB
:100FE000884206D1FFE7002006900998401C09902E
:100FF00004E05F480068401C0690FFE7FFF7E0FD53
:10100000FFE70B998B48026800209142049008D2B8
:10101000FFE70B998848405CFF3841424841049003
:10102000FFE70498C00720B1FFE70B98401C0B9026
:10103000E7E70B987F49096888421BD3FFE709A9B6
:101040004F4848800698400247F600010291401838
:101050000999FFF7EDFE0299474A022010604448C3
:101060000390006840024018FFF7BEFD0399069800
:1010700008607BE009A8008809900B9A11046E486B
:10108000805C0006014309980843099006984002D5
:1010900047F6000140180999FFF7CAFE0B98401C5B
:1010A0000B9004200A90FFE70B9862490968884278
:1010B00035D2FFE70B996048405CFF2801D1FFE77C
:1010C00029E0079858B9FFE70B995B48405C00029C
:1010D00001430898084308900120079019E00B9AF3
:1010E00011045548805C00060143089808430890A5
:1010F000069840020A99401847F6000140180899DE
:10110000FFF796FE0020089007900A98001D0A90AD
:10111000FFE7FFE7FFE70B98401C0B90C4E70A9836
:10112000154908600798012813D1FFE7089813496B
:1011300008430890069840020A99401847F60001B3
:1011400040180899FFF774FE0B490868801C086076
:10115000FFE7074801900068400247F60001401889
:10116000FFF742FD019906980860FFE70CB080BDCB
:101170002400002018000020200000200000FFFFB5
:10118000FFFF000080B586B004900391029204A88E
:1011900000784007002803D5FFE70298019002E09D
:1011A00003980190FFE701988069008800900098FB
:1011B000104988420AD1FFE71049002008600199D0
:1011C0008869801C88610498059010E00A4801F045
:1011D000B7F90198FFF714FCFFE7019800680121B7
:1011E000084308B1FFE7F8E704980590FFE7059882
:1011F00006B080BDABBE0000AC2E00000800002091
:1012000083B0024601A8027000910078CE490968B7
:10121000884203D3FFE70320029008E001A8017889
:10122000CA48405C0099087000200290FFE70298CD
:1012300003B070471C0000202900002083B00290FA
:1012400001910092002003B07047000081B000902F
:1012500000980449086001B07047C0460148006822
:101260007047C0460400004080B584B000F074F8B8
:101270000420FFF789FA1020FFF794FB05200021D6
:101280000391FFF7B9FA0F480190FFF761FA01984F
:10129000039A45F20001FFF733FB0B480290FFF77A
:1012A00057FA0298039A03210904FFF729FB00F07B
:1012B0009BFE00F0BFF900F097FE00F00BF804B0C1
:1012C00080BDC0460300C05E103D006F3249002063
:1012D0000860704730490020086070471549086869
:1012E000012210430860704710B583B002900020BF
:1012F00001900090029B0E4A134001200146994044
:10130000019102A9C9780B4BC9180091019C009B5F
:10131000196821431960029911408840C043019027
:10132000019A009908681040086003B010BDC046DB
:10133000FFFFFF0008000040FFE717495920086041
:101340001620086088200860FFE71348006800281E
:10135000F3D0FFE77047C046FFE70F495920086008
:101360001620086088200860FFE70B480068002806
:10137000F3D0FFE77047C046FFE7074959200860F0
:101380001620086088200860FFE7034800680028EE
:10139000F3D0FFE77047C0460001004080B588B039
:1013A000FFF70EFC6549002008600790FFE70798EB
:1013B00063490968884210D2FFE70798400247F660
:1013C00000014018FFF7FCFC07994A006946885263
:1013D000FFE70798401C0790E9E700200790FFE728
:1013E000079857490968884211D2FFE707984100DA
:1013F0006846405A5349884204D0FFE707984F494E
:101400000860FFE7FFE70798401C0790E8E74B48B4
:10141000006841006846405A4A4988420DD1FFE7BA
:1014200046480068400247F6000140184949FFF766
:10143000FFFC4749022008607DE040480068400208
:1014400047F600014018FFF7BBFC069006A94A8842
:1014500005A80270C97804AA11700078FF2804D189
:10146000FFE73B490220086064E005A800783649A0
:101470000968884206D2FFE7049805A90A7833492B
:101480008854FFE7324940F20020086004200790AA
:10149000FFE70798400A00284BD1FFE7274800687C
:1014A00040020799401847F600014018FFF788FCF2
:1014B0000690069905A801700699090A04AA1170F8
:1014C0000078FF2804D1FFE707982149086030E041
:1014D00005A800781C490968884206D2FFE70498ED
:1014E00005A90A7819498854FFE7FFE706A94A8841
:1014F00005A80270C97804AA11700078FF2805D1E8
:10150000FFE70798801C1249086012E005A80078E0
:101510000D490968884206D2FFE7049805A90A78B0
:101520000A498854FFE7FFE7FFE70798001D079087
:10153000AFE7FFE7FFE708B080BDC046240000200A
:1015400018000020FFFF00001C00002029000020E0
:10155000200000200000FFFF80B582B001900198BC
:1015600000F002F802B080BD81B00090FFE70E48A5
:1015700000680002002801D5FFE7F8E76846007818
:101580000A280CD1FFE709490D200860FFE706484B
:1015900000680002002801D5FFE7F8E7FFE70098A0
:1015A0000249086001B0704718000740000007407A
:1015B00080B584B002900298401E000E18B1FFE77B
:1015C0000120039011E00298401E094908600020A4
:1015D0000190C043032100F0CBFD0198054908604C
:1015E000054A072111600390FFE7039804B080BD0E
:1015F00014E000E018E000E010E000E080B500F04A
:101600008FFF80BD80B582B00190002000F080FF88
:101610001C4800680199B0FBF1F0FFF7C9FF28B141
:10162000FFE7034800F08CFFFFE7FEE702B080BD54
:101630007A31000083B0104800680721084001900B
:10164000019881000D48405802900D4800680F2114
:101650000840401C009002980099B0FBF1F1094845
:1016600001600068084940180849B0FBF1F00849DA
:10167000086003B07047C046100200408C2E000086
:10168000200200400400002020A1070040420F007B
:101690000000002080B5FFF74FFE034901200860DD
:1016A000FFF714FE80BDC046B002004080B582B096
:1016B0000120C1067048019040F2E83200F088F83D
:1016C000019800F010F8212000F038FD019800F09A
:1016D000B8F802B080BDC04681B0009000990120EA
:1016E000886001B0704781B00090009908680122BD
:1016F00052071043086001B0704781B00090009815
:1017000080680121084001B070470000B0B58CB07E
:101710000B902B4901A83CC93CC03CC93CC00B986C
:101720002849884208D1FFE72848006840F2007144
:101730000840000A0A9023E00B984F49884208D1DC
:10174000FFE72248006847F200010840000B0A90BA
:1017500015E00B981C49884208D1FFE71B48006838
:10176000072109040840000C0A9007E017480068A8
:10177000072109050840000D0A90FFE7FFE7FFE792
:101780000A98022813D1FFE70B980E49884205D02A
:10179000FFE70B983849884204D1FFE7FFF70AF8C2
:1017A000099003E0FFF716F80990FFE705E00A98B3
:1017B000810001A840580990FFE709980CB0B0BD1E
:1017C0006C2E00000000054000100540140200408F
:1017D00080B586B00590049103920598FFF796FFB7
:1017E00002900020019000900398029949088842D5
:1017F00003D9FFE70220019012E002980399B0FBA1
:10180000F1F0019001A8C0780090009838B1FFE78E
:1018100001980099491CB0FBF1F00190FFE7FFE748
:101820000498009908430599086001980599486053
:101830000298019A0099491C5143B0FBF1F006B09F
:1018400080BD81B000900099086801229207104382
:10185000086001B07047000080B50748FFF74DFFF2
:10186000012808D1FFE70448FFF736FF00F060FECB
:1018700000F0E0F9FFE780BD0001054081B0009075
:101880000349086801225040086001B07047C04613
:101890004448004081B0009001B0704781B0009092
:1018A00001B0704780B584B023490A20002200F0BF
:1018B00055F8014621480160006800280BD4FFE775
:1018C0001E480390006800F07FF9039801681C48E7
:1018D00000F036FEFFE71B496420002200F03EF8CE
:1018E000014619480160006800280BD4FFE716483C
:1018F0000290006800F068F902980168134800F04F
:101900001FFEFFE7124940F2E830002200F026F8FF
:10191000014610480160006800280BD4FFE70D481D
:101920000190006800F050F9019801680A4800F041
:1019300007FEFFE704B080BD9D1800000C000020EA
:10194000562F00009518000010000020662F0000A0
:101950007D18000014000020762F000080B584B0B0
:10196000034603A803800291019200880299019A1C
:1019700000F002F804B080BD86B004AB188003917B
:10198000029200200190FFE701980F2826D8FFE778
:1019900001980101CA484018009000988068C0B9B9
:1019A000FFE704980099088000990020488000997A
:1019B0000871009A01215171009988710099C871CC
:1019C00003980099886002980099C8600198059072
:1019D00008E0FFE70198401C0190D5E70020C043D4
:1019E0000590FFE7059806B07047C04680B584B003
:1019F00003907448029001A900200870C043009031
:101A000000F0B0F80298007802994978884217D01F
:101A1000FFE7029801788900401840680090029919
:101A20000878401C087002980078102804D3FFE75B
:101A3000029900200870FFE701A901200870FFE764
:101A400000F092F801A8007820B1FFE70098039910
:101A50000860FFE701A8007804B080BD80B500F001
:101A600035F800F001F880BD80B584B00020039007
:101A7000FFE703980F2826D8FFE703980101904855
:101A80004018029002984079C0B9FFE702980079A7
:101A9000A0B1FFE70298806880B1FFE7029800F0EC
:101AA000AFF850B1FFE70298806801900298C068D3
:101AB0000090019900988847FFE7FFE7FFE7039848
:101AC000401C0390D5E704B080BDC04680B584B00B
:101AD000FFE703A8FFF78AFFE0B1FFE703980028BC
:101AE00017D4FFE703980F2813DCFFE703980101E1
:101AF0007348401802900298806801900298C0686C
:101B00000090019820B1FFE7019900988847FFE70E
:101B1000FFE7DEE704B080BD83B002902948019062
:101B200001984078411C684601700078102804D361
:101B3000FFE7694600200870FFE7684600780199D2
:101B40000978884201D1FFE709E0029801994A78B3
:101B5000920089184860009801994870FFE703B027
:101B60007047C04672B6704762B6704783B015487A
:101B70000090009900200870009948700290FFE7DB
:101B800002980F281CD8FFE7029801014C48401822
:101B900001900199002008800199488001990871FD
:101BA000019A01215171019988710199C8710199B6
:101BB00088600199C860FFE70298401C0290DFE747
:101BC00003B070471401002082B0019001981028E2
:101BD00001D3FFE712E00198010139484018009055
:101BE0000098806808B9FFE708E000990020488065
:101BF00000998871009901200871FFE702B07047D1
:101C000080B582B00190694600200870FFF7AAFFF6
:101C10000198807938B1FFE7019900208871694601
:101C200001200870FFE7FFF79FFF6846007802B0C9
:101C300080BD000080B582B000200190FFE70198D0
:101C40000F283AD8FFE7019801011D48401800907D
:101C50000098007960B3FFE70098806840B3FFE721
:101C6000009840881749884205D0FFE700994888C6
:101C7000401C4880FFE70098408800990988884206
:101C800015DBFFE70099002048800098407948B9AB
:101C9000FFE70098807920B9FFE70099012088715B
:101CA000FFE703E00198FFF737FFFFE7FFE7FFE7F4
:101CB000FFE70198401C0190C1E702B080BDC0461B
:101CC00058010020FFFF000080B51248006841F273
:101CD0000011084203D0FFE7012018B90DE00120F0
:101CE00058B9FFE7FFE70C4800684004002803D418
:101CF000FFE700F023F9F6E7FFE7074800687121E6
:101D0000084206D0FFE7B44842F2004100F03CF838
:101D1000FFE780BD1C0007401800074080B582B077
:101D20001448FFF7E1FAE1204102AB48019000F0CE
:101D300073F80198112100F065F8242000F0FEF9F5
:101D4000FEF732FD01460C4800F0FAFBFEF732FDCB
:101D500001460A4800F0F4FBFEF73CFD0146084846
:101D600000F0EEFBFEF71AFD0146064800F0E8FB26
:101D700002B080BD10000004B82F0000862F0000C4
:101D80009F2F0000D22F000082B001900091684682
:101D9000C078C00728B1FFE7019901200004C8619D
:101DA000FFE7684640784007002807D5FFE701991C
:101DB00070208861019908208861FFE768464078B3
:101DC0000007002806D5FFE7019948690122104362
:101DD0004861FFE7684640788006002804D5FFE7A1
:101DE000019907488861FFE7684640784006002867
:101DF00004D5FFE7019903204864FFE702B070476C
:101E00000100000182B001900091009A0199486898
:101E10001043486002B0704710B58AB0099008912D
:101E2000414901A80CC90CC01CC91CC0002000906D
:101E30000998694988420FD1FFE73D4800680721AA
:101E400009040840000C07903A48006840F6007109
:101E50000840000A069012E00998344988420DD1E2
:101E6000FFE733480068072109050840000D079087
:101E70003048006880B2000B0690FFE7FFE7099941
:101E80000020086309990320C860099988682A4AD4
:101E9000104088600798042814D1FFE709984E493C
:101EA000884207D1FFE7FEF785FC07998A0001A960
:101EB000885006E0FEF78EFC07998A0001A9885039
:101EC000FFE7FFE7089868B3FFE70798810001A8DC
:101ED00040580699491CB0FBF1F008994A0880184F
:101EE000B0FBF1F0801E00906846408890B1FFE79B
:101EF0000798810001A840580699491CB0FBF1F0F1
:101F00000899CA008018B0FBF1F00009801E0999F9
:101F1000486206E0009803210907084309994862CE
:101F2000FFE7FFE70AB010BD582E00000010074081
:101F300018020040200200400FFFF0FF80B584B07F
:101F400003A80021017024490968017000788028E5
:101F500004DBFFE7234800F0F3FA3BE003A801901D
:101F600001781E4800F0ECFA0198007802903128C0
:101F700018D0FFE7029832281AD0FFE702983328DA
:101F80001CD0FFE7029858281ED0FFE702985A2875
:101F90001AD0FFE70298782816D0FFE702987A282F
:101FA00012D016E00E49087804221043087010E0A1
:101FB0000B4908780222104308700AE008490878A3
:101FC00008221043087004E0FFF7C6F9FFF786F90E
:101FD000FFE7FFE704B080BD00000740492F000085
:101FE00008010020E92F000010B5084908680F23F8
:101FF0001A049043032254040019086008681B0562
:10200000984352058018086010BDC0463C0000404F
:1020100010B58AB0024608A8027007AA1170002104
:10202000069100783F490968884203D3FFE70320FF
:10203000099074E008A801783B48405C07A909783A
:10204000884203D1FFE70020099068E03748006824
:10205000400A18B1FFE7FEF7ADFFFFE7FEF7B0FD5E
:10206000324800788007D8B9FFE708A805900078C3
:102070000799090240183049084306902C48006827
:1020800040022A490968401847F60001401806999D
:10209000FEF7CEFE059907980A78234988542CE06C
:1020A00023480190006841022048039000684018CE
:1020B000204902914018FEF783FE019A02990346D7
:1020C0000398069306AB1B88069308AB04931B7812
:1020D0001B04079C24061C19069B234306931268C5
:1020E00052020068801840180699FEF7A1FE049974
:1020F00007980A780C498854FFE70C48006840F2BA
:10210000FE11884203D1FFE7FEF754FF04E00749C0
:102110000868801C0860FFE700200990FFE7099825
:102120000AB010BD1C000020290000202000002063
:1021300024000020FE7700000000FFFF81B0014670
:10214000684601700021405600280DD4FFE70021A9
:10215000684641561F200A46024001209040490926
:102160008900024A8850FFE701B0704700E100E0B3
:1021700070B582B0024601A802700091002140565D
:10218000002816D4FFE7002401A908570322D343EF
:102190001840174A805809578C07E50EFF24AC40B9
:1021A000A043009CA401E4B2AC40204319408850F5
:1021B0001AE001A908780F24204008380322D343ED
:1021C00018400A4A8058002549578D07EE0EFF2512
:1021D000B540A843009DAD01EDB2B5402843214074
:1021E000083919408850FFE702B070BD1CED00E0CF
:1021F00000E400E080B582B0FFF730F80090794944
:102200000868794A104308600099784800F098F906
:1022100068460078C00720B1FFE7754800F090F9E4
:10222000FFE7684600788007002804D5FFE771487B
:1022300000F086F9FFE7684600784007002804D5DB
:10224000FFE76D4800F07CF9FFE76846007800077B
:10225000002804D5FFE7694800F072F9FFE76846F7
:102260000078C006002804D5FFE7654800F068F94B
:10227000FFE7684600788006002804D5FFE761483C
:1022800000F05EF9FFE7684600784006002804D5B4
:10229000FFE75D4800F054F9FFE768460078000664
:1022A000002804D5FFE7594800F04AF9FFE76846DF
:1022B0004078C00720B1FFE7554800F041F9FFE73B
:1022C00068460078C00750B1FFE70120FEF7BEFF67
:1022D000584800F035F901A9002008707DE06846F3
:1022E0000078800700280AD5FFE70220FEF7AEFF3E
:1022F0004F4800F025F901A9002008706DE06846FC
:102300000078400700280AD5FFE70420FEF79EFF6B
:10231000464800F015F901A9002008705DE0684604
:102320000078000700280AD5FFE70820FEF78EFF97
:102330003D4800F005F901A9002008704DE068460D
:102340000078C00600280AD5FFE71020FEF77EFFC0
:10235000344800F0F5F801A9002008703DE0684617
:102360000078800600280AD5FFE72020FEF76EFFE0
:102370002B4800F0E5F801A9002008702DE0684620
:102380000078000600280AD5FFE78020FEF75EFFF0
:10239000224800F0D5F801A9002008701DE0684629
:1023A0004078C00758B1FFE740F20010FEF74EFF3B
:1023B000194800F0C5F801A9002008700DE0FFE7FA
:1023C000FFE7FFE7FFE7FFE7FFE7FFE7114800F060
:1023D000B7F801A900200870FFE701A8007802B053
:1023E00080BDC04604000040FF010000E62E000052
:1023F00034300000803000005A30000047300000C8
:1024000021300000BB2E0000D82E00006D300000EF
:102410009A300000FB2F00003F31000060310000C7
:1024200022310000D4300000EE30000008310000FE
:10243000B4300000FE2E000080B582B00190009103
:102440000198FFF789F8019802B080BD374800680D
:102450007047C04680B5FFF701FBFFF7F7FF014665
:10246000194848430321C8411849884201D8FFE769
:10247000FFE7174800788007C00F40B1FFE7144915
:102480000878FD2210400870FEF74EFBFFE7104869
:1024900000784007C00F40B1FFE70D490878FB22E4
:1024A00010400870FEF7F8FAFFE7094800780007C7
:1024B000C00F40B1FFE706490878F72210400870C6
:1024C000FEF7B8FAFFE780BDD578E92637894100E5
:1024D0000801002080B582B000200190FEF7C4FE04
:1024E000FEF700FDFFF71AFCFFF7E0F8FFF782FEAA
:1024F00040F2E830FFF786F8FFF738FBFFF7D2F934
:10250000FEF782FAFEF7C8FAFFE7FFF7A3FFFCE742
:1025100081B0009000980549086001B07047C0463E
:1025200002490868401C08607047C046000100204E
:1025300002490868401C08607047C046040100203A
:102540000FB410B503A9044B044A029800F0E8F850
:1025500010BC08BC04B0184739240000AC000020AF
:102560002021020C01D010211046020A01D0104691
:102570000839020901D01046091F820801D010460F
:10258000891E420801D0881E7047081A704702E071
:1025900008C8121F08C1002AFAD1704770470020EE
:1025A00001E001C1121F002AFBD17047F0B51FB432
:1025B00086B00998089A030D0021024314D05148AF
:1025C000514A1818504305141198012810981AD030
:1025D000281A401C00264D4F4D4900960191049049
:1025E000002812DA444211E01198012449A301287D
:1025F00001D11098C1430698119A84600360C260AB
:1026000041600BB0F0BD4042E4E7044621050020E4
:102610003F4A001C51410391029012E0E00707D0AD
:1026200032463B4601990098FDF7B4FE01910090B7
:1026300032463B4610461946FDF7ACFE06460F46AD
:102640006410002CEAD10498039B0028029A09998F
:10265000089806DAFDF79EFE019B009AFDF79AFEA8
:1026600005E0FDF7FFFE019B009AFDF7FBFE044627
:102670000E460022284BFDF78DFF03D80020C043F3
:10268000014607E00022254B20463146FDF7D0FDEC
:10269000FDF760FF102409E0002C0ADB0A2200236A
:1026A000FDF796FD079B30321A55641E02460A4319
:1026B000F2D11122641C079B121B1C19119B012BC8
:1026C00003D0012308430ED10AE0084304D01120AF
:1026D00010900020119077E71098151A6D1E0BE0EE
:1026E0001098824202DD00236D1C03E0824201DA71
:1026F00000236D1E002BEED0069811998260C160F8
:1027000030C07EE701FCFFFF104D000000001440C8
:102710000000F03F300000000000F0430000E03F08
:10272000FFB597B00646002518E2252877D100248A
:102730002746FD49049400E00443761C32780120CA
:10274000203A90400842F7D130782A280ED0022251
:10275000307801463039092916D804990A2359439B
:10276000303940181443761C0490F1E7189802C8D9
:1027700004911890002904DA0120400304434842E0
:10278000049002200443761C30782E2814D10420B3
:1027900004437078761C2A2809D11898761C80C8C2
:1027A000189009E00A214F43303FC719761C307852
:1027B000014630390929F5D930786C2810D006DC6B
:1027C0004C281AD068280ED06A2817D104E0742843
:1027D00013D07A2812D110E00120400504430CE008
:1027E0000121090501E0032109050C4371788142AB
:1027F00003D1012000052418761C761C3078119036
:1028000066280BD013DC58287DD009DC00287BD04B
:102810004528F6D04628F4D047281AD1A5E118E07B
:10282000632835D0642870D0652812D19DE17028C6
:102830006CD008DC6728F1D069287BD06E280DD0D9
:102840006F2806D1BAE073282ED0752871D0782869
:1028500059D01A9A199990476D1C7EE16002400F79
:10286000022809D003280DD00428189801680DD03B
:102870000D60001D189070E11898EA1701680D604E
:102880004A60F6E7189801680D80F2E70D70F0E7EE
:1028900018986A4601781172001D18900020507235
:1028A00002A80090012005E0189802C818900020A6
:1028B0000091C04361070DD5002101E00199491C39
:1028C0000191B94212DA8142F8DB009A515C002989
:1028D000F4D10BE0002101E00199491C01918142F2
:1028E000FADB019A0099895C0029F5D101990498D5
:1028F0001A9B471A21463846199A00F097FA01990F
:10290000401945180BE04FE02CE113E04EE0009831
:1029100000990078491C00911A9A199990470198DA
:10292000401E0190401CF2D1214638461A9B199A4C
:1029300010E137E00A200021009001916002410F70
:10294000022907D0189A01CA1892C217944603297F
:1029500008D00AE01898C01DC108C90005C918911F
:10296000944607E000B2C2179446042902D140B24F
:10297000C1178C4600226146944506DA0A460021BA
:10298000404291418C462D2102E0210504D52B21A6
:102990006A461173012103E0E10701D02021F7E726
:1029A000029155E00A200AE0102008E01020009073
:1029B0000021042004430191082703E0082000219E
:1029C000019100906002410F022907D0189A01CAB4
:1029D000189200229446032908D008E01898C01DD8
:1029E000C108C90005C91891944603E080B20429C2
:1029F00000D1C0B200210291210729D51199702977
:102A000006D0009A1021019B4A401A4305D00EE0DF
:102A100040216A461173012108E06146014306D056
:102A200030216A4611731199517302210291009A63
:102A30000821019B4A401A430AD16146014301D152
:102A4000610705D530216A46117301217F1E02916D
:102A50001199582904D035A10E910DA90D910DE0C1
:102A600037A1F9E76146019B009AFDF7B1FB0E9B88
:102A70008C469B5C0D9A521E0D9213706146014369
:102A8000F0D10D9805A9081A20300190600703D5F0
:102A900001200004844300E001270198874201DD02
:102AA000381A00E000200199009041180298091896
:102AB0000498401A0490E00306D421461A9B199A00
:102AC000049800F0B3F94519002706E003A81A9A04
:102AD000C05D199990476D1C7F1C02988742F5DBF9
:102AE000E0030CD521461A9B199A049800F09EF930
:102AF000451904E01A9A3020199990476D1C0099E5
:102B0000481E00900029F5DC08E00D980D9900782A
:102B1000491C0D911A9A199990476D1C0199481EEC
:102B200001900029F1DC63E10928010030313233E2
:102B300034353637383961626364656600000000F9
:102B400030313233343536373839414243444546E3
:102B50000000000000F05AF94519761C3078002872
:102B600000D0E2E528461BB0F0BD600700D4062780
:102B70001898C01DC108C90048680A680831C30F09
:102B8000DB071891190001D09CA108E0210501D5AF
:102B90009BA104E0E10701D09AA100E09AA14300C3
:102BA00011985B08109165280CD006DC452809D0E7
:102BB00046281DD0472841D141E0662818D0672813
:102BC0003CD13CE00021112F01DB112000E0781CFA
:102BD0000191009008A911A8FFF7E8FC139905914D
:102BE0000021119A15927F1C12980197009150E0D4
:102BF0000120C00703900120019008A9009711A8A7
:102C0000FFF7D4FC139A149905920022119B0092AD
:102C100012981593059A0192002901D0104602E0FE
:102C2000791C40180190381A01D5019804E04042FF
:102C3000401E0090781C0190C01B029043E0012FC1
:102C400000DA01270021112F01DD112000E03846B4
:102C50000191009008A911A8FFF7A8FC139905910C
:102C6000119A0021129815920091019721070CD416
:102C70000599B94201DB019900E00191012904DDC8
:102C8000159A491E515C302906D0B84201DA011D5F
:102C900005DA0121029115E00199491EEDE70028AE
:102CA00005DC0099411800910199091A03E0019A85
:102CB000411C914200DD01910099401A401C029094
:102CC0000120C0070390200706D402990198814291
:102CD00002DB0020C043029000206946C87707AF9E
:102CE000012103980337C907884224D0022011909C
:102CF0002B201290039800280CDA404203902D20DC
:102D0000129007E00A210398FDF770FC30317F1E16
:102D1000039039701199481E11900029F2DC039834
:102D20000028EFD1791E12980870307820210840D1
:102D30004530BF1E387006A8C01BC01D03901098F8
:102D40000078002800D00120019941180298C0178E
:102D50000918039809180498401A401E0490E003CB
:102D600006D421461A9B199A049800F05FF8451979
:102D700010980078002803D01A9A199990476D1C72
:102D8000E00324D521461A9B199A049800F04EF8C6
:102D900045191CE00098002807DB00990598884237
:102DA00003DD1598405C199901E0199930201A9AB1
:102DB000904700986D1C401C00900298401E0290A5
:102DC000002804D11A9A2E20199990476D1C019958
:102DD000481E01900029DDDC05E038781A9A7F1C36
:102DE000199990476D1C0399481E03900029F4DC43
:102DF00021461A9B199A0498ACE600002D000000A9
:102E00002B0000002000000000000000F8B5044680
:102E100000251E461746880404D405E039462020C4
:102E2000B0476D1C641EF9D52846F8BDFFB50446B1
:102E3000002581B01E46C80301D5302700E02027B9
:102E4000880404D505E038460399B0476D1C641E1C
:102E5000F9D5284605B0F0BD0000000000000000D4
:102E60000000000000366E010000000000000000BD
:102E7000000000000000000000000000102700001B
:102E800000366E010000000000000000000000009D
:102E900000000000000000001027000000000000FB
:102EA00000366E0100000000000000002020486194
:102EB00072644661756C74210A0A0035295379736E
:102EC00074656D20526573657420466C6167200DD2
:102ED0000A002573200D0A00362952657365727643
:102EE00065642E0D0A00526573657420536F757208
:102EF0006365203C3078253038583E0D0A00706FED
:102F0000776572206F6E2066726F6D20504F520D84
:102F10000A002573202C20696E63725F62617365FD
:102F2000203A2030782532580D0A00496E69745FC6
:102F3000454550524F4D206661696C65643A2030BA
:102F4000782530386C580D0A007072657373203A1A
:102F50002025630D0A007461736B31206964203D84
:102F60002025640D0A007461736B32206964203D72
:102F70002025640D0A007461736B33206964203D61
:102F80002025640D0A00434C4B5F47657450434C49
:102F90004B3046726571203A202538640D0A004393
:102FA0004C4B5F47657450434C4B31467265712002
:102FB0003A202538640D0A000D0A434C4B5F4765E3
:102FC0007448434C4B46726571203A202538640D95
:102FD0000A00434C4B5F4765744350554672657118
:102FE000203A202538640D0A00696E76616C6964A8
:102FF00020636F6D6D616E640D0A00706F7765728E
:10300000206F6E2066726F6D20756E68616E646CE5
:103010006520726573657420736F757263650D0A40
:10302000003429424F4420526573657420466C6118
:10303000670D0A003029504F522052657365742085
:10304000466C61670D0A0033294C56522052657355
:10305000657420466C61670D0A003229574454207C
:10306000526573657420466C61670D0A0037294309
:10307000505520526573657420466C61670D0A00D7
:1030800031294E52455345542050696E2052657384
:10309000657420466C61670D0A003829435055203D
:1030A0004C6F636B757020526573657420466C615C
:1030B000670D0A00706F776572206F6E2066726F01
:1030C0006D206E52455345542070696E0D0A0025DF
:1030D000730D0A00706F776572206F6E2066726FD5
:1030E0006D20424F442052657365740D0A00706F65
:1030F000776572206F6E2066726F6D204C5652207D
:1031000052657365740D0A00706F776572206F6E7B
:103110002066726F6D205744542052657365740D9C
:103120000A00706F776572206F6E2066726F6D2077
:1031300053797374656D2052657365740D0A007060
:103140006F776572206F6E2066726F6D20435055E9
:10315000204C6F636B75702052657365740D0A00A7
:10316000706F776572206F6E2066726F6D204350AE
:10317000552072657365740D0A0053657420737968
:103180007374656D207469636B206572726F722150
:10319000210A003078253258202C2000456D756CAE
:1031A0006174655F454550524F4D5F52656164548F
:1031B00065737400456D756C6174655F454550526B
:1031C0004F4D5F45726173655465737400456D754D
:1031D0006C6174655F454550524F4D5F577269741D
:1031E0006554657374000000083200000000002080
:1031F000180000008E25000020320000180000207A
:10320000400600009E2500001800000000366E01F8
:1032100001000000FFFFFFFFFFFFFFFFFFFFFFFFB9
:0400000500000155A1
:00000001FF
